{
  "_format": "hh-sol-artifact-1",
  "contractName": "MyEpicGame",
  "sourceName": "contracts/MyEpicGame.sol",
  "abi": [
    {
      "inputs": [
        {
          "internalType": "uint64",
          "name": "subscriptionId",
          "type": "uint64"
        },
        {
          "internalType": "string[]",
          "name": "characterNames",
          "type": "string[]"
        },
        {
          "internalType": "string[]",
          "name": "characterImageURIs",
          "type": "string[]"
        },
        {
          "internalType": "uint256[]",
          "name": "characterHp",
          "type": "uint256[]"
        },
        {
          "internalType": "uint256[]",
          "name": "characterAttackDmg",
          "type": "uint256[]"
        },
        {
          "internalType": "string",
          "name": "bossName",
          "type": "string"
        },
        {
          "internalType": "string",
          "name": "bossImageURI",
          "type": "string"
        },
        {
          "internalType": "uint256",
          "name": "bossHp",
          "type": "uint256"
        },
        {
          "internalType": "uint256",
          "name": "bossAttackDamage",
          "type": "uint256"
        }
      ],
      "stateMutability": "nonpayable",
      "type": "constructor"
    },
    {
      "inputs": [
        {
          "internalType": "address",
          "name": "have",
          "type": "address"
        },
        {
          "internalType": "address",
          "name": "want",
          "type": "address"
        }
      ],
      "name": "OnlyCoordinatorCanFulfill",
      "type": "error"
    },
    {
      "anonymous": false,
      "inputs": [
        {
          "indexed": true,
          "internalType": "address",
          "name": "owner",
          "type": "address"
        },
        {
          "indexed": true,
          "internalType": "address",
          "name": "approved",
          "type": "address"
        },
        {
          "indexed": true,
          "internalType": "uint256",
          "name": "tokenId",
          "type": "uint256"
        }
      ],
      "name": "Approval",
      "type": "event"
    },
    {
      "anonymous": false,
      "inputs": [
        {
          "indexed": true,
          "internalType": "address",
          "name": "owner",
          "type": "address"
        },
        {
          "indexed": true,
          "internalType": "address",
          "name": "operator",
          "type": "address"
        },
        {
          "indexed": false,
          "internalType": "bool",
          "name": "approved",
          "type": "bool"
        }
      ],
      "name": "ApprovalForAll",
      "type": "event"
    },
    {
      "anonymous": false,
      "inputs": [
        {
          "indexed": false,
          "internalType": "uint256",
          "name": "newBossHp",
          "type": "uint256"
        },
        {
          "indexed": false,
          "internalType": "uint256",
          "name": "newPlayerHp",
          "type": "uint256"
        }
      ],
      "name": "AttackComplete",
      "type": "event"
    },
    {
      "anonymous": false,
      "inputs": [
        {
          "indexed": false,
          "internalType": "address",
          "name": "sender",
          "type": "address"
        },
        {
          "indexed": false,
          "internalType": "uint256",
          "name": "tokenId",
          "type": "uint256"
        },
        {
          "indexed": false,
          "internalType": "uint256",
          "name": "characterIndex",
          "type": "uint256"
        }
      ],
      "name": "CharacterNFTMinted",
      "type": "event"
    },
    {
      "anonymous": false,
      "inputs": [
        {
          "indexed": false,
          "internalType": "address",
          "name": "loser",
          "type": "address"
        },
        {
          "indexed": false,
          "internalType": "uint256",
          "name": "tokenId",
          "type": "uint256"
        },
        {
          "indexed": false,
          "internalType": "string",
          "name": "charName",
          "type": "string"
        }
      ],
      "name": "Losers",
      "type": "event"
    },
    {
      "anonymous": false,
      "inputs": [
        {
          "indexed": true,
          "internalType": "address",
          "name": "from",
          "type": "address"
        },
        {
          "indexed": true,
          "internalType": "address",
          "name": "to",
          "type": "address"
        },
        {
          "indexed": true,
          "internalType": "uint256",
          "name": "tokenId",
          "type": "uint256"
        }
      ],
      "name": "Transfer",
      "type": "event"
    },
    {
      "anonymous": false,
      "inputs": [
        {
          "indexed": false,
          "internalType": "address",
          "name": "winner",
          "type": "address"
        },
        {
          "indexed": false,
          "internalType": "uint256",
          "name": "tokenId",
          "type": "uint256"
        },
        {
          "indexed": false,
          "internalType": "string",
          "name": "charName",
          "type": "string"
        }
      ],
      "name": "Winners",
      "type": "event"
    },
    {
      "inputs": [
        {
          "internalType": "address",
          "name": "to",
          "type": "address"
        },
        {
          "internalType": "uint256",
          "name": "tokenId",
          "type": "uint256"
        }
      ],
      "name": "approve",
      "outputs": [],
      "stateMutability": "nonpayable",
      "type": "function"
    },
    {
      "inputs": [],
      "name": "attackBoss",
      "outputs": [],
      "stateMutability": "nonpayable",
      "type": "function"
    },
    {
      "inputs": [
        {
          "internalType": "address",
          "name": "owner",
          "type": "address"
        }
      ],
      "name": "balanceOf",
      "outputs": [
        {
          "internalType": "uint256",
          "name": "",
          "type": "uint256"
        }
      ],
      "stateMutability": "view",
      "type": "function"
    },
    {
      "inputs": [],
      "name": "bigBoss",
      "outputs": [
        {
          "internalType": "string",
          "name": "name",
          "type": "string"
        },
        {
          "internalType": "string",
          "name": "imageURI",
          "type": "string"
        },
        {
          "internalType": "uint256",
          "name": "hp",
          "type": "uint256"
        },
        {
          "internalType": "uint256",
          "name": "maxHp",
          "type": "uint256"
        },
        {
          "internalType": "uint256",
          "name": "attackDamage",
          "type": "uint256"
        }
      ],
      "stateMutability": "view",
      "type": "function"
    },
    {
      "inputs": [],
      "name": "checkIfUserHasNFT",
      "outputs": [
        {
          "components": [
            {
              "internalType": "uint256",
              "name": "characterIndex",
              "type": "uint256"
            },
            {
              "internalType": "string",
              "name": "name",
              "type": "string"
            },
            {
              "internalType": "string",
              "name": "imageURI",
              "type": "string"
            },
            {
              "internalType": "uint256",
              "name": "hp",
              "type": "uint256"
            },
            {
              "internalType": "uint256",
              "name": "maxHp",
              "type": "uint256"
            },
            {
              "internalType": "uint256",
              "name": "attackDamage",
              "type": "uint256"
            }
          ],
          "internalType": "struct MyEpicGame.CharacterAttributes",
          "name": "",
          "type": "tuple"
        }
      ],
      "stateMutability": "view",
      "type": "function"
    },
    {
      "inputs": [],
      "name": "getAllDefaultCharacters",
      "outputs": [
        {
          "components": [
            {
              "internalType": "uint256",
              "name": "characterIndex",
              "type": "uint256"
            },
            {
              "internalType": "string",
              "name": "name",
              "type": "string"
            },
            {
              "internalType": "string",
              "name": "imageURI",
              "type": "string"
            },
            {
              "internalType": "uint256",
              "name": "hp",
              "type": "uint256"
            },
            {
              "internalType": "uint256",
              "name": "maxHp",
              "type": "uint256"
            },
            {
              "internalType": "uint256",
              "name": "attackDamage",
              "type": "uint256"
            }
          ],
          "internalType": "struct MyEpicGame.CharacterAttributes[]",
          "name": "",
          "type": "tuple[]"
        }
      ],
      "stateMutability": "view",
      "type": "function"
    },
    {
      "inputs": [
        {
          "internalType": "uint256",
          "name": "tokenId",
          "type": "uint256"
        }
      ],
      "name": "getApproved",
      "outputs": [
        {
          "internalType": "address",
          "name": "",
          "type": "address"
        }
      ],
      "stateMutability": "view",
      "type": "function"
    },
    {
      "inputs": [],
      "name": "getBigBoss",
      "outputs": [
        {
          "components": [
            {
              "internalType": "string",
              "name": "name",
              "type": "string"
            },
            {
              "internalType": "string",
              "name": "imageURI",
              "type": "string"
            },
            {
              "internalType": "uint256",
              "name": "hp",
              "type": "uint256"
            },
            {
              "internalType": "uint256",
              "name": "maxHp",
              "type": "uint256"
            },
            {
              "internalType": "uint256",
              "name": "attackDamage",
              "type": "uint256"
            }
          ],
          "internalType": "struct MyEpicGame.BigBoss",
          "name": "",
          "type": "tuple"
        }
      ],
      "stateMutability": "view",
      "type": "function"
    },
    {
      "inputs": [
        {
          "internalType": "address",
          "name": "owner",
          "type": "address"
        },
        {
          "internalType": "address",
          "name": "operator",
          "type": "address"
        }
      ],
      "name": "isApprovedForAll",
      "outputs": [
        {
          "internalType": "bool",
          "name": "",
          "type": "bool"
        }
      ],
      "stateMutability": "view",
      "type": "function"
    },
    {
      "inputs": [
        {
          "internalType": "uint256",
          "name": "_characterIndex",
          "type": "uint256"
        }
      ],
      "name": "mintCharacterNFT",
      "outputs": [],
      "stateMutability": "payable",
      "type": "function"
    },
    {
      "inputs": [],
      "name": "name",
      "outputs": [
        {
          "internalType": "string",
          "name": "",
          "type": "string"
        }
      ],
      "stateMutability": "view",
      "type": "function"
    },
    {
      "inputs": [
        {
          "internalType": "uint256",
          "name": "",
          "type": "uint256"
        }
      ],
      "name": "nftHolderAttributes",
      "outputs": [
        {
          "internalType": "uint256",
          "name": "characterIndex",
          "type": "uint256"
        },
        {
          "internalType": "string",
          "name": "name",
          "type": "string"
        },
        {
          "internalType": "string",
          "name": "imageURI",
          "type": "string"
        },
        {
          "internalType": "uint256",
          "name": "hp",
          "type": "uint256"
        },
        {
          "internalType": "uint256",
          "name": "maxHp",
          "type": "uint256"
        },
        {
          "internalType": "uint256",
          "name": "attackDamage",
          "type": "uint256"
        }
      ],
      "stateMutability": "view",
      "type": "function"
    },
    {
      "inputs": [
        {
          "internalType": "address",
          "name": "",
          "type": "address"
        }
      ],
      "name": "nftHolders",
      "outputs": [
        {
          "internalType": "uint256",
          "name": "",
          "type": "uint256"
        }
      ],
      "stateMutability": "view",
      "type": "function"
    },
    {
      "inputs": [],
      "name": "owner",
      "outputs": [
        {
          "internalType": "address payable",
          "name": "",
          "type": "address"
        }
      ],
      "stateMutability": "view",
      "type": "function"
    },
    {
      "inputs": [
        {
          "internalType": "uint256",
          "name": "tokenId",
          "type": "uint256"
        }
      ],
      "name": "ownerOf",
      "outputs": [
        {
          "internalType": "address",
          "name": "",
          "type": "address"
        }
      ],
      "stateMutability": "view",
      "type": "function"
    },
    {
      "inputs": [
        {
          "internalType": "uint256",
          "name": "requestId",
          "type": "uint256"
        },
        {
          "internalType": "uint256[]",
          "name": "randomWords",
          "type": "uint256[]"
        }
      ],
      "name": "rawFulfillRandomWords",
      "outputs": [],
      "stateMutability": "nonpayable",
      "type": "function"
    },
    {
      "inputs": [],
      "name": "requestRandomWords",
      "outputs": [],
      "stateMutability": "nonpayable",
      "type": "function"
    },
    {
      "inputs": [
        {
          "internalType": "uint256",
          "name": "",
          "type": "uint256"
        }
      ],
      "name": "s_randomWords",
      "outputs": [
        {
          "internalType": "uint256",
          "name": "",
          "type": "uint256"
        }
      ],
      "stateMutability": "view",
      "type": "function"
    },
    {
      "inputs": [],
      "name": "s_requestId",
      "outputs": [
        {
          "internalType": "uint256",
          "name": "",
          "type": "uint256"
        }
      ],
      "stateMutability": "view",
      "type": "function"
    },
    {
      "inputs": [
        {
          "internalType": "address",
          "name": "from",
          "type": "address"
        },
        {
          "internalType": "address",
          "name": "to",
          "type": "address"
        },
        {
          "internalType": "uint256",
          "name": "tokenId",
          "type": "uint256"
        }
      ],
      "name": "safeTransferFrom",
      "outputs": [],
      "stateMutability": "nonpayable",
      "type": "function"
    },
    {
      "inputs": [
        {
          "internalType": "address",
          "name": "from",
          "type": "address"
        },
        {
          "internalType": "address",
          "name": "to",
          "type": "address"
        },
        {
          "internalType": "uint256",
          "name": "tokenId",
          "type": "uint256"
        },
        {
          "internalType": "bytes",
          "name": "_data",
          "type": "bytes"
        }
      ],
      "name": "safeTransferFrom",
      "outputs": [],
      "stateMutability": "nonpayable",
      "type": "function"
    },
    {
      "inputs": [
        {
          "internalType": "address",
          "name": "operator",
          "type": "address"
        },
        {
          "internalType": "bool",
          "name": "approved",
          "type": "bool"
        }
      ],
      "name": "setApprovalForAll",
      "outputs": [],
      "stateMutability": "nonpayable",
      "type": "function"
    },
    {
      "inputs": [
        {
          "internalType": "bytes4",
          "name": "interfaceId",
          "type": "bytes4"
        }
      ],
      "name": "supportsInterface",
      "outputs": [
        {
          "internalType": "bool",
          "name": "",
          "type": "bool"
        }
      ],
      "stateMutability": "view",
      "type": "function"
    },
    {
      "inputs": [],
      "name": "symbol",
      "outputs": [
        {
          "internalType": "string",
          "name": "",
          "type": "string"
        }
      ],
      "stateMutability": "view",
      "type": "function"
    },
    {
      "inputs": [
        {
          "internalType": "uint256",
          "name": "_tokenId",
          "type": "uint256"
        }
      ],
      "name": "tokenURI",
      "outputs": [
        {
          "internalType": "string",
          "name": "",
          "type": "string"
        }
      ],
      "stateMutability": "view",
      "type": "function"
    },
    {
      "inputs": [
        {
          "internalType": "address",
          "name": "from",
          "type": "address"
        },
        {
          "internalType": "address",
          "name": "to",
          "type": "address"
        },
        {
          "internalType": "uint256",
          "name": "tokenId",
          "type": "uint256"
        }
      ],
      "name": "transferFrom",
      "outputs": [],
      "stateMutability": "nonpayable",
      "type": "function"
    },
    {
      "inputs": [],
      "name": "withdraw",
      "outputs": [],
      "stateMutability": "nonpayable",
      "type": "function"
    }
  ],
  "bytecode": "0x60a0604052600780546001600160a01b031916732ca8e0c643bde4c2e08ab1fa0da3401adad7734d1790557f79d3d8832d904592c0bf9818b621522c988bb8b0c05cdc3b15aea1b6e8db0c156008556009805466020003000186a06001600160501b03199091161790553480156200007657600080fd5b50604051620044b6380380620044b6833981016040819052620000999162000a5c565b600754604080518082018252600b81526a1cdbdb191a595c8b585b9d60aa1b60208083019182528351808501909452600384526210539560ea1b9084015281516001600160a01b0390941693919291620000f6916000916200078b565b5080516200010c9060019060208401906200078b565b505050806001600160a01b03166080816001600160a01b03168152505050600760009054906101000a90046001600160a01b0316600660006101000a8154816001600160a01b0302191690836001600160a01b0316021790555033600c60006101000a8154816001600160a01b0302191690836001600160a01b0316021790555088600660146101000a8154816001600160401b0302191690836001600160401b0316021790555033600d60006101000a8154816001600160a01b0302191690836001600160a01b031602179055506040518060a001604052808581526020018481526020018381526020018381526020018281525060116000820151816000019080519060200190620002229291906200078b565b5060208281015180516200023d92600185019201906200078b565b50604082015181600201556060820151816003015560808201518160040155905050620003ba6040518060600160405280602a81526020016200448c602a9139601180546200028c9062000b8c565b80601f0160208091040260200160405190810160405280929190818152602001828054620002ba9062000b8c565b80156200030b5780601f10620002df576101008083540402835291602001916200030b565b820191906000526020600020905b815481529060010190602001808311620002ed57829003601f168201915b505060135460128054919450925062000325915062000b8c565b80601f0160208091040260200160405190810160405280929190818152602001828054620003539062000b8c565b8015620003a45780601f106200037857610100808354040283529160200191620003a4565b820191906000526020600020905b8154815290600101906020018083116200038657829003601f168201915b50505050506200070a60201b62001fd61760201c565b60005b8851811015620006e357600f6040518060c001604052808381526020018b8481518110620003ef57620003ef62000bc9565b602002602001015181526020018a848151811062000411576200041162000bc9565b6020026020010151815260200189848151811062000433576200043362000bc9565b6020026020010151815260200189848151811062000455576200045562000bc9565b6020026020010151815260200188848151811062000477576200047762000bc9565b602090810291909101810151909152825460018181018555600094855293829020835160069092020190815582820151805193949193620004c1939285019291909101906200078b565b5060408201518051620004df9160028401916020909101906200078b565b50606082015181600301556080820151816004015560a0820151816005015550506000600f828154811062000518576200051862000bc9565b90600052602060002090600602016040518060c0016040529081600082015481526020016001820180546200054d9062000b8c565b80601f01602080910402602001604051908101604052809291908181526020018280546200057b9062000b8c565b8015620005cc5780601f10620005a057610100808354040283529160200191620005cc565b820191906000526020600020905b815481529060010190602001808311620005ae57829003601f168201915b50505050508152602001600282018054620005e79062000b8c565b80601f0160208091040260200160405190810160405280929190818152602001828054620006159062000b8c565b8015620006665780601f106200063a5761010080835404028352916020019162000666565b820191906000526020600020905b8154815290600101906020018083116200064857829003601f168201915b5050505050815260200160038201548152602001600482015481526020016005820154815250509050620006cd60405180606001604052806025815260200162004467602591398260200151836060015184604001516200070a60201b62001fd61760201c565b50620006db60018262000bdf565b9050620003bd565b50620006fb600e6200076160201b6200201f1760201c565b50505050505050505062000c84565b6200075b8484848460405160240162000727949392919062000c34565b60408051601f198184030181529190526020810180516001600160e01b03908116638d142cdd60e01b179091526200076a16565b50505050565b80546001019055565b80516a636f6e736f6c652e6c6f67602083016000808483855afa5050505050565b828054620007999062000b8c565b90600052602060002090601f016020900481019282620007bd576000855562000808565b82601f10620007d857805160ff191683800117855562000808565b8280016001018555821562000808579182015b8281111562000808578251825591602001919060010190620007eb565b50620008169291506200081a565b5090565b5b808211156200081657600081556001016200081b565b80516001600160401b03811681146200084957600080fd5b919050565b634e487b7160e01b600052604160045260246000fd5b604051601f8201601f191681016001600160401b03811182821017156200088f576200088f6200084e565b604052919050565b60006001600160401b03821115620008b357620008b36200084e565b5060051b60200190565b60005b83811015620008da578181015183820152602001620008c0565b838111156200075b5750506000910152565b600082601f830112620008fe57600080fd5b81516001600160401b038111156200091a576200091a6200084e565b6200092f601f8201601f191660200162000864565b8181528460208386010111156200094557600080fd5b62000958826020830160208701620008bd565b949350505050565b600082601f8301126200097257600080fd5b815160206200098b620009858362000897565b62000864565b82815260059290921b84018101918181019086841115620009ab57600080fd5b8286015b84811015620009ef5780516001600160401b03811115620009d05760008081fd5b620009e08986838b0101620008ec565b845250918301918301620009af565b509695505050505050565b600082601f83011262000a0c57600080fd5b8151602062000a1f620009858362000897565b82815260059290921b8401810191818101908684111562000a3f57600080fd5b8286015b84811015620009ef578051835291830191830162000a43565b60008060008060008060008060006101208a8c03121562000a7c57600080fd5b62000a878a62000831565b60208b01519099506001600160401b038082111562000aa557600080fd5b62000ab38d838e0162000960565b995060408c015191508082111562000aca57600080fd5b62000ad88d838e0162000960565b985060608c015191508082111562000aef57600080fd5b62000afd8d838e01620009fa565b975060808c015191508082111562000b1457600080fd5b62000b228d838e01620009fa565b965060a08c015191508082111562000b3957600080fd5b62000b478d838e01620008ec565b955060c08c015191508082111562000b5e57600080fd5b5062000b6d8c828d01620008ec565b93505060e08a015191506101008a015190509295985092959850929598565b600181811c9082168062000ba157607f821691505b6020821081141562000bc357634e487b7160e01b600052602260045260246000fd5b50919050565b634e487b7160e01b600052603260045260246000fd5b6000821982111562000c0157634e487b7160e01b600052601160045260246000fd5b500190565b6000815180845262000c20816020860160208601620008bd565b601f01601f19169290920160200192915050565b60808152600062000c49608083018762000c06565b828103602084015262000c5d818762000c06565b9050846040840152828103606084015262000c79818562000c06565b979650505050505050565b6080516137c062000ca76000396000818161097601526109b801526137c06000f3fe60806040526004361061019c5760003560e01c806395d89b41116100ec578063c8cf27f41161008a578063e89e106a11610064578063e89e106a146104bf578063e985e9c5146104d5578063f6eaffc81461051e578063f8b81ef71461053e57600080fd5b8063c8cf27f414610473578063d4f24c5b14610495578063e0c86289146104aa57600080fd5b8063a9c32679116100c6578063a9c32679146103eb578063b88d4fde14610411578063b953084e14610431578063c87b56dd1461045357600080fd5b806395d89b411461038457806398da4c9514610399578063a22cb465146103cb57600080fd5b806323b872dd116101595780636352211e116101335780636352211e146102e957806370a08231146103095780637df124a1146103375780638da5cb5b1461036457600080fd5b806323b872dd146102945780633ccfd60b146102b457806342842e0e146102c957600080fd5b806301ffc9a7146101a15780630665f961146101d657806306fdde03146101f8578063081812fc1461021a578063095ea7b3146102525780631fe543e314610274575b600080fd5b3480156101ad57600080fd5b506101c16101bc366004612b5d565b610551565b60405190151581526020015b60405180910390f35b3480156101e257600080fd5b506101eb6105a3565b6040516101cd9190612bd9565b34801561020457600080fd5b5061020d610729565b6040516101cd9190612c3d565b34801561022657600080fd5b5061023a610235366004612c50565b6107bb565b6040516001600160a01b0390911681526020016101cd565b34801561025e57600080fd5b5061027261026d366004612c85565b610855565b005b34801561028057600080fd5b5061027261028f366004612cf6565b61096b565b3480156102a057600080fd5b506102726102af366004612da8565b6109f3565b3480156102c057600080fd5b50610272610a24565b3480156102d557600080fd5b506102726102e4366004612da8565b610b08565b3480156102f557600080fd5b5061023a610304366004612c50565b610b23565b34801561031557600080fd5b50610329610324366004612de4565b610b9a565b6040519081526020016101cd565b34801561034357600080fd5b50610329610352366004612de4565b60166020526000908152604090205481565b34801561037057600080fd5b50600d5461023a906001600160a01b031681565b34801561039057600080fd5b5061020d610c21565b3480156103a557600080fd5b506103b96103b4366004612c50565b610c30565b6040516101cd96959493929190612dff565b3480156103d757600080fd5b506102726103e6366004612e49565b610d75565b3480156103f757600080fd5b50610400610d80565b6040516101cd959493929190612e85565b34801561041d57600080fd5b5061027261042c366004612ec8565b610eb2565b34801561043d57600080fd5b50610446610eea565b6040516101cd9190612feb565b34801561045f57600080fd5b5061020d61046e366004612c50565b611095565b34801561047f57600080fd5b506104886112a6565b6040516101cd919061304d565b3480156104a157600080fd5b506102726114a2565b3480156104b657600080fd5b50610272611b4b565b3480156104cb57600080fd5b50610329600b5481565b3480156104e157600080fd5b506101c16104f0366004613060565b6001600160a01b03918216600090815260056020908152604080832093909416825291909152205460ff1690565b34801561052a57600080fd5b50610329610539366004612c50565b611c60565b61027261054c366004612c50565b611c81565b60006001600160e01b031982166380ac58cd60e01b148061058257506001600160e01b03198216635b5e139f60e01b145b8061059d57506301ffc9a760e01b6001600160e01b03198316145b92915050565b6105d56040518060a0016040528060608152602001606081526020016000815260200160008152602001600081525090565b60116040518060a00160405290816000820180546105f290613093565b80601f016020809104026020016040519081016040528092919081815260200182805461061e90613093565b801561066b5780601f106106405761010080835404028352916020019161066b565b820191906000526020600020905b81548152906001019060200180831161064e57829003601f168201915b5050505050815260200160018201805461068490613093565b80601f01602080910402602001604051908101604052809291908181526020018280546106b090613093565b80156106fd5780601f106106d2576101008083540402835291602001916106fd565b820191906000526020600020905b8154815290600101906020018083116106e057829003601f168201915b505050505081526020016002820154815260200160038201548152602001600482015481525050905090565b60606000805461073890613093565b80601f016020809104026020016040519081016040528092919081815260200182805461076490613093565b80156107b15780601f10610786576101008083540402835291602001916107b1565b820191906000526020600020905b81548152906001019060200180831161079457829003601f168201915b5050505050905090565b6000818152600260205260408120546001600160a01b03166108395760405162461bcd60e51b815260206004820152602c60248201527f4552433732313a20617070726f76656420717565727920666f72206e6f6e657860448201526b34b9ba32b73a103a37b5b2b760a11b60648201526084015b60405180910390fd5b506000908152600460205260409020546001600160a01b031690565b600061086082610b23565b9050806001600160a01b0316836001600160a01b031614156108ce5760405162461bcd60e51b815260206004820152602160248201527f4552433732313a20617070726f76616c20746f2063757272656e74206f776e656044820152603960f91b6064820152608401610830565b336001600160a01b03821614806108ea57506108ea81336104f0565b61095c5760405162461bcd60e51b815260206004820152603860248201527f4552433732313a20617070726f76652063616c6c6572206973206e6f74206f7760448201527f6e6572206e6f7220617070726f76656420666f7220616c6c00000000000000006064820152608401610830565b6109668383612028565b505050565b336001600160a01b037f000000000000000000000000000000000000000000000000000000000000000016146109e55760405163073e64fd60e21b81523360048201526001600160a01b037f0000000000000000000000000000000000000000000000000000000000000000166024820152604401610830565b6109ef8282612096565b5050565b6109fd33826120a9565b610a195760405162461bcd60e51b8152600401610830906130ce565b6109668383836121a0565b600d546001600160a01b03163314610a6a5760405162461bcd60e51b81526020600482015260096024820152682737ba1037bbb732b960b91b6044820152606401610830565b600d5460405147916000916001600160a01b039091169083908381818185875af1925050503d8060008114610abb576040519150601f19603f3d011682016040523d82523d6000602084013e610ac0565b606091505b50509050806109ef5760405162461bcd60e51b81526020600482015260146024820152732330b4b632b2103a379039b2b7321022ba3432b960611b6044820152606401610830565b61096683838360405180602001604052806000815250610eb2565b6000818152600260205260408120546001600160a01b03168061059d5760405162461bcd60e51b815260206004820152602960248201527f4552433732313a206f776e657220717565727920666f72206e6f6e657869737460448201526832b73a103a37b5b2b760b91b6064820152608401610830565b60006001600160a01b038216610c055760405162461bcd60e51b815260206004820152602a60248201527f4552433732313a2062616c616e636520717565727920666f7220746865207a65604482015269726f206164647265737360b01b6064820152608401610830565b506001600160a01b031660009081526003602052604090205490565b60606001805461073890613093565b60106020526000908152604090208054600182018054919291610c5290613093565b80601f0160208091040260200160405190810160405280929190818152602001828054610c7e90613093565b8015610ccb5780601f10610ca057610100808354040283529160200191610ccb565b820191906000526020600020905b815481529060010190602001808311610cae57829003601f168201915b505050505090806002018054610ce090613093565b80601f0160208091040260200160405190810160405280929190818152602001828054610d0c90613093565b8015610d595780601f10610d2e57610100808354040283529160200191610d59565b820191906000526020600020905b815481529060010190602001808311610d3c57829003601f168201915b5050505050908060030154908060040154908060050154905086565b6109ef33838361233c565b601180548190610d8f90613093565b80601f0160208091040260200160405190810160405280929190818152602001828054610dbb90613093565b8015610e085780601f10610ddd57610100808354040283529160200191610e08565b820191906000526020600020905b815481529060010190602001808311610deb57829003601f168201915b505050505090806001018054610e1d90613093565b80601f0160208091040260200160405190810160405280929190818152602001828054610e4990613093565b8015610e965780601f10610e6b57610100808354040283529160200191610e96565b820191906000526020600020905b815481529060010190602001808311610e7957829003601f168201915b5050505050908060020154908060030154908060040154905085565b610ebc33836120a9565b610ed85760405162461bcd60e51b8152600401610830906130ce565b610ee48484848461240b565b50505050565b6060600f805480602002602001604051908101604052809291908181526020016000905b8282101561108c57838290600052602060002090600602016040518060c001604052908160008201548152602001600182018054610f4b90613093565b80601f0160208091040260200160405190810160405280929190818152602001828054610f7790613093565b8015610fc45780601f10610f9957610100808354040283529160200191610fc4565b820191906000526020600020905b815481529060010190602001808311610fa757829003601f168201915b50505050508152602001600282018054610fdd90613093565b80601f016020809104026020016040519081016040528092919081815260200182805461100990613093565b80156110565780601f1061102b57610100808354040283529160200191611056565b820191906000526020600020905b81548152906001019060200180831161103957829003601f168201915b50505050508152602001600382015481526020016004820154815260200160058201548152505081526020019060010190610f0e565b50505050905090565b6000818152601060209081526040808320815160c081019092528054825260018101805460609594840191906110ca90613093565b80601f01602080910402602001604051908101604052809291908181526020018280546110f690613093565b80156111435780601f1061111857610100808354040283529160200191611143565b820191906000526020600020905b81548152906001019060200180831161112657829003601f168201915b5050505050815260200160028201805461115c90613093565b80601f016020809104026020016040519081016040528092919081815260200182805461118890613093565b80156111d55780601f106111aa576101008083540402835291602001916111d5565b820191906000526020600020905b8154815290600101906020018083116111b857829003601f168201915b5050505050815260200160038201548152602001600482015481526020016005820154815250509050600061120d826060015161243e565b9050600061121e836080015161243e565b9050600061122f8460a0015161243e565b9050600061127585602001516112448961243e565b87604001518787876040516020016112619695949392919061313b565b60405160208183030381529060405261253c565b905060008160405160200161128a91906132f7565b60408051601f1981840301815291905298975050505050505050565b6112df6040518060c001604052806000815260200160608152602001606081526020016000815260200160008152602001600081525090565b33600090815260166020526040902054801561146557601060008281526020019081526020016000206040518060c00160405290816000820154815260200160018201805461132d90613093565b80601f016020809104026020016040519081016040528092919081815260200182805461135990613093565b80156113a65780601f1061137b576101008083540402835291602001916113a6565b820191906000526020600020905b81548152906001019060200180831161138957829003601f168201915b505050505081526020016002820180546113bf90613093565b80601f01602080910402602001604051908101604052809291908181526020018280546113eb90613093565b80156114385780601f1061140d57610100808354040283529160200191611438565b820191906000526020600020905b81548152906001019060200180831161141b57829003601f168201915b50505050508152602001600382015481526020016004820154815260200160058201548152505091505090565b61059d6040518060c001604052806000815260200160608152602001606081526020016000815260200160008152602001600081525090565b5090565b336000908152601660209081526040808320548084526010835292819020815160608101909252603c808352909261157992919061374f908301398260010180546114ec90613093565b80601f016020809104026020016040519081016040528092919081815260200182805461151890613093565b80156115655780601f1061153a57610100808354040283529160200191611565565b820191906000526020600020905b81548152906001019060200180831161154857829003601f168201915b5050505050836003015484600501546126a2565b6116516040518060400160405280601b81526020017f426f73732025732068617320257320485020616e642025732041440000000000815250601160000180546115c290613093565b80601f01602080910402602001604051908101604052809291908181526020018280546115ee90613093565b801561163b5780601f106116105761010080835404028352916020019161163b565b820191906000526020600020905b81548152906001019060200180831161161e57829003601f168201915b50505050506011600201546011600401546126a2565b60008160030154116116cb5760405162461bcd60e51b815260206004820152603860248201527f4572726f723a2047616d65204f7665722c20636861726163746572206d75737460448201527f206861766520485020746f2061747461636b20626f73732e00000000000000006064820152608401610830565b60135461172b5760405162461bcd60e51b815260206004820152602860248201527f4572726f723a20626f7373206d757374206861766520485020746f206174746160448201526731b5903137b9b99760c11b6064820152608401610830565b6005810154601354101561191a57600060135560408051808201909152601b81527f426f73732025732068617320257320485020616e6420257320414400000000006020820152601180546117859291906115c290613093565b6118506040518060400160405280601f81526020017f536f6c6469657220416e742025732068617320776f6e207468652067616d65008152508260010180546117cd90613093565b80601f01602080910402602001604051908101604052809291908181526020018280546117f990613093565b80156118465780601f1061181b57610100808354040283529160200191611846565b820191906000526020600020905b81548152906001019060200180831161182957829003601f168201915b50505050506126eb565b6118996040518060400160405280601d81526020017f54686520426f737320257320686173206c6f7374207468652067616d65000000815250601160000180546117cd90613093565b7f22eab1d320e837da74f0b4d9e86413d495558abaa6b7065ae3a698436619693c3383836001016040516118cf939291906133dc565b60405180910390a16040517fba1013f2eeb88115830d7202c1879339e3f90ea456055440a8401a04e7ed406c9061190d9030906001906011906133dc565b60405180910390a1611930565b600581015460135461192c9190613422565b6013555b60155460038201541015611aa257600081600301819055506119906040518060400160405280601d81526020017f506c617965722025732068617320257320485020616e642025732041440000008152508260010180546114ec90613093565b6119d86040518060400160405280602081526020017f536f6c6469657220416e7420257320686173206c6f7374207468652067616d658152508260010180546117cd90613093565b611a216040518060400160405280601c81526020017f54686520426f73732025732068617320576f6e207468652067616d6500000000815250601160000180546117cd90613093565b7fba1013f2eeb88115830d7202c1879339e3f90ea456055440a8401a04e7ed406c338383600101604051611a57939291906133dc565b60405180910390a16040517f22eab1d320e837da74f0b4d9e86413d495558abaa6b7065ae3a698436619693c90611a959030906001906011906133dc565b60405180910390a1611aba565b6015546003820154611ab49190613422565b60038201555b60135460038201546040517f838ab28464562786a6c4ab2311964b82fa60bd9b14aa7e856af1f3f18d41a41492611af992908252602082015260400190565b60405180910390a1611b2560405180606001604052806025815260200161369460259139601354612730565b6109ef6040518060600160405280602881526020016136f9602891398260030154612730565b600d546001600160a01b03163314611b915760405162461bcd60e51b81526020600482015260096024820152682737ba1037bbb732b960b91b6044820152606401610830565b6006546008546009546040516305d3b1d360e41b81526004810192909252600160a01b830467ffffffffffffffff166024830152640100000000810461ffff16604483015263ffffffff808216606484015266010000000000009091041660848201526001600160a01b0390911690635d3b1d309060a401602060405180830381600087803b158015611c2357600080fd5b505af1158015611c37573d6000803e3d6000fd5b505050506040513d601f19601f82011682018060405250810190611c5b9190613439565b600b55565b600a8181548110611c7057600080fd5b600091825260209091200154905081565b66038d7ea4c6800034811115611cd95760405162461bcd60e51b815260206004820152601860248201527f4e6f7420656e6f756768204d6f6e657920746f207061696400000000000000006044820152606401610830565b6000611ce4600e5490565b9050611cf03382612775565b6040518060c00160405280848152602001600f8581548110611d1457611d14613452565b90600052602060002090600602016001018054611d3090613093565b80601f0160208091040260200160405190810160405280929190818152602001828054611d5c90613093565b8015611da95780601f10611d7e57610100808354040283529160200191611da9565b820191906000526020600020905b815481529060010190602001808311611d8c57829003601f168201915b50505050508152602001600f8581548110611dc657611dc6613452565b90600052602060002090600602016002018054611de290613093565b80601f0160208091040260200160405190810160405280929190818152602001828054611e0e90613093565b8015611e5b5780601f10611e3057610100808354040283529160200191611e5b565b820191906000526020600020905b815481529060010190602001808311611e3e57829003601f168201915b50505050508152602001600f8581548110611e7857611e78613452565b9060005260206000209060060201600301548152602001600f8581548110611ea257611ea2613452565b9060005260206000209060060201600401548152602001600f8581548110611ecc57611ecc613452565b60009182526020808320600560069093020191909101549092528381526010825260409020825181558282015180519192611f0f92600185019290910190612a75565b5060408201518051611f2b916002840191602090910190612a75565b50606082015181600301556080820151816004015560a08201518160050155905050611f706040518060600160405280602e8152602001613721602e9139828561278f565b336000908152601660205260409020819055611f90600e80546001019055565b60408051338152602081018390529081018490527f4bc303fd457a97b4691b9af582ce71868a3d258638c8d4f8c60988a0f0bfb8cd9060600160405180910390a1505050565b610ee484848484604051602401611ff09493929190613468565b60408051601f198184030181529190526020810180516001600160e01b0316638d142cdd60e01b1790526127d2565b80546001019055565b600081815260046020526040902080546001600160a01b0319166001600160a01b038416908117909155819061205d82610b23565b6001600160a01b03167f8c5be1e5ebec7d5bd14f71427d1e84f3dd0314c0f7b2291e5b200ac8c7c3b92560405160405180910390a45050565b805161096690600a906020840190612af5565b6000818152600260205260408120546001600160a01b03166121225760405162461bcd60e51b815260206004820152602c60248201527f4552433732313a206f70657261746f7220717565727920666f72206e6f6e657860448201526b34b9ba32b73a103a37b5b2b760a11b6064820152608401610830565b600061212d83610b23565b9050806001600160a01b0316846001600160a01b0316148061217457506001600160a01b0380821660009081526005602090815260408083209388168352929052205460ff165b806121985750836001600160a01b031661218d846107bb565b6001600160a01b0316145b949350505050565b826001600160a01b03166121b382610b23565b6001600160a01b0316146122175760405162461bcd60e51b815260206004820152602560248201527f4552433732313a207472616e736665722066726f6d20696e636f72726563742060448201526437bbb732b960d91b6064820152608401610830565b6001600160a01b0382166122795760405162461bcd60e51b8152602060048201526024808201527f4552433732313a207472616e7366657220746f20746865207a65726f206164646044820152637265737360e01b6064820152608401610830565b612284600082612028565b6001600160a01b03831660009081526003602052604081208054600192906122ad908490613422565b90915550506001600160a01b03821660009081526003602052604081208054600192906122db9084906134b2565b909155505060008181526002602052604080822080546001600160a01b0319166001600160a01b0386811691821790925591518493918716917fddf252ad1be2c89b69c2b068fc378daa952ba7f163c4a11628f55a4df523b3ef91a4505050565b816001600160a01b0316836001600160a01b0316141561239e5760405162461bcd60e51b815260206004820152601960248201527f4552433732313a20617070726f766520746f2063616c6c6572000000000000006044820152606401610830565b6001600160a01b03838116600081815260056020908152604080832094871680845294825291829020805460ff191686151590811790915591519182527f17307eab39ab6107e8899845ad3d59bd9653f200f220920489ca2b5937696c31910160405180910390a3505050565b6124168484846121a0565b612422848484846127f3565b610ee45760405162461bcd60e51b8152600401610830906134ca565b6060816124625750506040805180820190915260018152600360fc1b602082015290565b8160005b811561248c57806124768161351c565b91506124859050600a8361354d565b9150612466565b60008167ffffffffffffffff8111156124a7576124a7612caf565b6040519080825280601f01601f1916602001820160405280156124d1576020820181803683370190505b5090505b8415612198576124e6600183613422565b91506124f3600a86613561565b6124fe9060306134b2565b60f81b81838151811061251357612513613452565b60200101906001600160f81b031916908160001a905350612535600a8661354d565b94506124d5565b80516060908061255c575050604080516020810190915260008152919050565b6000600361256b8360026134b2565b612575919061354d565b612580906004613575565b9050600061258f8260206134b2565b67ffffffffffffffff8111156125a7576125a7612caf565b6040519080825280601f01601f1916602001820160405280156125d1576020820181803683370190505b50905060006040518060600160405280604081526020016136b9604091399050600181016020830160005b8681101561265d576003818a01810151603f601282901c8116860151600c83901c8216870151600684901c831688015192909316870151600891821b60ff94851601821b92841692909201901b91160160e01b8352600490920191016125fc565b506003860660018114612677576002811461268857612694565b613d3d60f01b600119830152612694565b603d60f81b6000198301525b505050918152949350505050565b610ee4848484846040516024016126bc9493929190613594565b60408051601f198184030181529190526020810180516001600160e01b0316630d5cf17d60e41b1790526127d2565b6109ef82826040516024016127019291906135cd565b60408051601f198184030181529190526020810180516001600160e01b0316634b5c427760e01b1790526127d2565b6109ef82826040516024016127469291906135f2565b60408051601f198184030181529190526020810180516001600160e01b03166309710a9d60e41b1790526127d2565b6109ef828260405180602001604052806000815250612900565b6109668383836040516024016127a793929190613614565b60408051601f198184030181529190526020810180516001600160e01b031663969cdd0360e01b1790525b80516a636f6e736f6c652e6c6f67602083016000808483855afa5050505050565b60006001600160a01b0384163b156128f557604051630a85bd0160e11b81526001600160a01b0385169063150b7a0290612837903390899088908890600401613639565b602060405180830381600087803b15801561285157600080fd5b505af1925050508015612881575060408051601f3d908101601f1916820190925261287e91810190613676565b60015b6128db573d8080156128af576040519150601f19603f3d011682016040523d82523d6000602084013e6128b4565b606091505b5080516128d35760405162461bcd60e51b8152600401610830906134ca565b805181602001fd5b6001600160e01b031916630a85bd0160e11b149050612198565b506001949350505050565b61290a8383612933565b61291760008484846127f3565b6109665760405162461bcd60e51b8152600401610830906134ca565b6001600160a01b0382166129895760405162461bcd60e51b815260206004820181905260248201527f4552433732313a206d696e7420746f20746865207a65726f20616464726573736044820152606401610830565b6000818152600260205260409020546001600160a01b0316156129ee5760405162461bcd60e51b815260206004820152601c60248201527f4552433732313a20746f6b656e20616c7265616479206d696e746564000000006044820152606401610830565b6001600160a01b0382166000908152600360205260408120805460019290612a179084906134b2565b909155505060008181526002602052604080822080546001600160a01b0319166001600160a01b03861690811790915590518392907fddf252ad1be2c89b69c2b068fc378daa952ba7f163c4a11628f55a4df523b3ef908290a45050565b828054612a8190613093565b90600052602060002090601f016020900481019282612aa35760008555612ae9565b82601f10612abc57805160ff1916838001178555612ae9565b82800160010185558215612ae9579182015b82811115612ae9578251825591602001919060010190612ace565b5061149e929150612b2f565b828054828255906000526020600020908101928215612ae95791602002820182811115612ae9578251825591602001919060010190612ace565b5b8082111561149e5760008155600101612b30565b6001600160e01b031981168114612b5a57600080fd5b50565b600060208284031215612b6f57600080fd5b8135612b7a81612b44565b9392505050565b60005b83811015612b9c578181015183820152602001612b84565b83811115610ee45750506000910152565b60008151808452612bc5816020860160208601612b81565b601f01601f19169290920160200192915050565b602081526000825160a06020840152612bf560c0840182612bad565b90506020840151601f19848303016040850152612c128282612bad565b9150506040840151606084015260608401516080840152608084015160a08401528091505092915050565b602081526000612b7a6020830184612bad565b600060208284031215612c6257600080fd5b5035919050565b80356001600160a01b0381168114612c8057600080fd5b919050565b60008060408385031215612c9857600080fd5b612ca183612c69565b946020939093013593505050565b634e487b7160e01b600052604160045260246000fd5b604051601f8201601f1916810167ffffffffffffffff81118282101715612cee57612cee612caf565b604052919050565b60008060408385031215612d0957600080fd5b8235915060208084013567ffffffffffffffff80821115612d2957600080fd5b818601915086601f830112612d3d57600080fd5b813581811115612d4f57612d4f612caf565b8060051b9150612d60848301612cc5565b8181529183018401918481019089841115612d7a57600080fd5b938501935b83851015612d9857843582529385019390850190612d7f565b8096505050505050509250929050565b600080600060608486031215612dbd57600080fd5b612dc684612c69565b9250612dd460208501612c69565b9150604084013590509250925092565b600060208284031215612df657600080fd5b612b7a82612c69565b86815260c060208201526000612e1860c0830188612bad565b8281036040840152612e2a8188612bad565b60608401969096525050608081019290925260a0909101529392505050565b60008060408385031215612e5c57600080fd5b612e6583612c69565b915060208301358015158114612e7a57600080fd5b809150509250929050565b60a081526000612e9860a0830188612bad565b8281036020840152612eaa8188612bad565b60408401969096525050606081019290925260809091015292915050565b60008060008060808587031215612ede57600080fd5b612ee785612c69565b93506020612ef6818701612c69565b935060408601359250606086013567ffffffffffffffff80821115612f1a57600080fd5b818801915088601f830112612f2e57600080fd5b813581811115612f4057612f40612caf565b612f52601f8201601f19168501612cc5565b91508082528984828501011115612f6857600080fd5b808484018584013760008482840101525080935050505092959194509250565b805182526000602082015160c06020850152612fa760c0850182612bad565b905060408301518482036040860152612fc08282612bad565b915050606083015160608501526080830151608085015260a083015160a08501528091505092915050565b6000602080830181845280855180835260408601915060408160051b870101925083870160005b8281101561304057603f1988860301845261302e858351612f88565b94509285019290850190600101613012565b5092979650505050505050565b602081526000612b7a6020830184612f88565b6000806040838503121561307357600080fd5b61307c83612c69565b915061308a60208401612c69565b90509250929050565b600181811c908216806130a757607f821691505b602082108114156130c857634e487b7160e01b600052602260045260246000fd5b50919050565b60208082526031908201527f4552433732313a207472616e736665722063616c6c6572206973206e6f74206f6040820152701ddb995c881b9bdc88185c1c1c9bdd9959607a1b606082015260800190565b60008151613131818560208601612b81565b9290920192915050565b693d913730b6b2911d101160b11b8152865160009061316181600a850160208c01612b81565b6a01016969027232a10119d160ad1b600a91840191820152875161318c816015840160208c01612b81565b7f222c20226465736372697074696f6e223a20224120536f6c6469657220416e74601592909101918201527f20436f6d626174204e4654204d65746176657273652047616d65222c2022226960358201526e6d616765223a2022697066733a2f2f60881b60558201528651613208816064840160208b01612b81565b7f222c202261747472696275746573223a205b207b202274726169745f74797065606492909101918201527f223a20224865616c746820506f696e7473222c202276616c7565223a2000000060848201526132ea6132da6132d461329561328f61327560a187018c61311f565b6d16101136b0bc2fbb30b63ab2911d60911b8152600e0190565b8961311f565b7f7d2c207b202274726169745f74797065223a202241747461636b2044616d616781526c032911610113b30b63ab2911d1609d1b6020820152602d0190565b8661311f565b637d205d7d60e01b815260040190565b9998505050505050505050565b7f646174613a6170706c69636174696f6e2f6a736f6e3b6261736536342c00000081526000825161332f81601d850160208701612b81565b91909101601d0192915050565b8054600090600181811c908083168061335657607f831692505b602080841082141561337857634e487b7160e01b600052602260045260246000fd5b8388526020880182801561339357600181146133a4576133cf565b60ff198716825282820197506133cf565b60008981526020902060005b878110156133c9578154848201529086019084016133b0565b83019850505b5050505050505092915050565b60018060a01b0384168152826020820152606060408201526000613403606083018461333c565b95945050505050565b634e487b7160e01b600052601160045260246000fd5b6000828210156134345761343461340c565b500390565b60006020828403121561344b57600080fd5b5051919050565b634e487b7160e01b600052603260045260246000fd5b60808152600061347b6080830187612bad565b828103602084015261348d8187612bad565b905084604084015282810360608401526134a78185612bad565b979650505050505050565b600082198211156134c5576134c561340c565b500190565b60208082526032908201527f4552433732313a207472616e7366657220746f206e6f6e20455243373231526560408201527131b2b4bb32b91034b6b83632b6b2b73a32b960711b606082015260800190565b60006000198214156135305761353061340c565b5060010190565b634e487b7160e01b600052601260045260246000fd5b60008261355c5761355c613537565b500490565b60008261357057613570613537565b500690565b600081600019048311821515161561358f5761358f61340c565b500290565b6080815260006135a76080830187612bad565b82810360208401526135b98187612bad565b604084019590955250506060015292915050565b6040815260006135e06040830185612bad565b82810360208401526134038185612bad565b6040815260006136056040830185612bad565b90508260208301529392505050565b6060815260006136276060830186612bad565b60208301949094525060400152919050565b6001600160a01b038581168252841660208201526040810183905260806060820181905260009061366c90830184612bad565b9695505050505050565b60006020828403121561368857600080fd5b8151612b7a81612b4456fe506c617965722061747461636b656420626f73732e204e657720626f73732068703a2025734142434445464748494a4b4c4d4e4f505152535455565758595a6162636465666768696a6b6c6d6e6f707172737475767778797a303132333435363738392b2f426f73732061747461636b656420706c617965722e204e657720706c617965722068703a2025730a4d696e746564204e465420772f20746f6b656e496420257320616e6420636861726163746572496e6465782025730a506c6179657220772f206368617261637465722025732061626f757420746f2061747461636b2e2048617320257320485020616e64202573204144a26469706673582212201779097bcdbf7739e8a0a91f0dffc2a86632e95e5c68d4b6d4812aa3a93e202a64736f6c63430008090033446f6e6520696e697469616c697a696e6720257320772f2048502025732c20696d67202573446f6e6520696e697469616c697a696e6720626f737320257320772f2048502025732c20696d67202573",
  "linkReferences": {},
  "deployedLinkReferences": {}
}